{
  "contractName": "MISA3",
  "abi": [
    {
      "anonymous": false,
      "inputs": [
        {
          "indexed": true,
          "internalType": "address",
          "name": "from",
          "type": "address"
        },
        {
          "indexed": false,
          "internalType": "uint256",
          "name": "amount",
          "type": "uint256"
        }
      ],
      "name": "PaymentReceived",
      "type": "event"
    },
    {
      "anonymous": false,
      "inputs": [
        {
          "indexed": true,
          "internalType": "address",
          "name": "from",
          "type": "address"
        },
        {
          "indexed": true,
          "internalType": "address",
          "name": "to",
          "type": "address"
        },
        {
          "indexed": false,
          "internalType": "uint256",
          "name": "amount",
          "type": "uint256"
        },
        {
          "indexed": false,
          "internalType": "string",
          "name": "message",
          "type": "string"
        }
      ],
      "name": "PaymentSent",
      "type": "event"
    },
    {
      "constant": true,
      "inputs": [
        {
          "internalType": "address",
          "name": "",
          "type": "address"
        }
      ],
      "name": "balances",
      "outputs": [
        {
          "internalType": "uint256",
          "name": "",
          "type": "uint256"
        }
      ],
      "payable": false,
      "stateMutability": "view",
      "type": "function"
    },
    {
      "constant": true,
      "inputs": [],
      "name": "getBalance",
      "outputs": [
        {
          "internalType": "uint256",
          "name": "",
          "type": "uint256"
        }
      ],
      "payable": false,
      "stateMutability": "view",
      "type": "function"
    },
    {
      "constant": true,
      "inputs": [],
      "name": "contractBalance",
      "outputs": [
        {
          "internalType": "uint256",
          "name": "",
          "type": "uint256"
        }
      ],
      "payable": false,
      "stateMutability": "view",
      "type": "function"
    },
    {
      "constant": false,
      "inputs": [],
      "name": "deposit",
      "outputs": [],
      "payable": true,
      "stateMutability": "payable",
      "type": "function"
    },
    {
      "constant": false,
      "inputs": [
        {
          "internalType": "address",
          "name": "to",
          "type": "address"
        },
        {
          "internalType": "uint256",
          "name": "amount",
          "type": "uint256"
        },
        {
          "internalType": "string",
          "name": "message",
          "type": "string"
        }
      ],
      "name": "transfer",
      "outputs": [],
      "payable": false,
      "stateMutability": "nonpayable",
      "type": "function"
    }
  ],
  "bytecode": "0x608060405234801561001057600080fd5b50610420806100206000396000f3fe60806040526004361061004a5760003560e01c806312065fe01461004f57806327e235e31461007657806356b8c724146100a95780638b7afe2e1461013d578063d0e30db014610152575b600080fd5b34801561005b57600080fd5b5061006461015a565b60408051918252519081900360200190f35b34801561008257600080fd5b506100646004803603602081101561009957600080fd5b50356001600160a01b031661016d565b3480156100b557600080fd5b5061013b600480360360608110156100cc57600080fd5b6001600160a01b03823516916020810135918101906060810160408201356401000000008111156100fc57600080fd5b82018360208201111561010e57600080fd5b8035906020019184600183028401116401000000008311171561013057600080fd5b50909250905061017f565b005b34801561014957600080fd5b50610064610310565b61013b610314565b3360009081526020819052604090205490565b60006020819052908152604090205481565b6001600160a01b0384166101da576040805162461bcd60e51b815260206004820152601960248201527f496e76616c696420726563697069656e74206164647265737300000000000000604482015290519081900360640190fd5b600083116102195760405162461bcd60e51b81526004018080602001828103825260268152602001806103c66026913960400191505060405180910390fd5b33600090815260208190526040902054831115610274576040805162461bcd60e51b8152602060048201526014602482015273496e73756666696369656e742062616c616e636560601b604482015290519081900360640190fd5b33600081815260208181526040808320805488900390556001600160a01b0388168084529281902080548801905580518781529182018181529082018590529192917fb1010776ed854d1e940d4ef133f9fa76da17f3a4080ee1f9e7d98f62b95163949187918791879160608201848480828437600083820152604051601f909101601f1916909201829003965090945050505050a350505050565b4790565b600034116103535760405162461bcd60e51b81526004018080602001828103825260258152602001806103a16025913960400191505060405180910390fd5b3360008181526020818152604091829020805434908101909155825190815291517f6ef95f06320e7a25a04a175ca677b7052bdd97131872c2192525a629f51be7709281900390910190a256fe4465706f73697420616d6f756e74206d7573742062652067726561746572207468616e20305472616e7366657220616d6f756e74206d7573742062652067726561746572207468616e2030a265627a7a72315820ab1b3bd18224d2479fec4bc29f48664b1c00e3a09e0d64b11458a55299463b4564736f6c63430005100032",
  "source": "//SPDX-License-Identifier: MIT\r\npragma solidity >=0.5.16 <0.9.0;\r\n//pragma experimental ABIEncoderV2;\r\ncontract MISA3 {\r\n\r\n    mapping(address => uint256) public balances;\r\n\r\n    event PaymentSent(address indexed from, address indexed to, uint256 amount, string message);\r\n    event PaymentReceived(address indexed from, uint256 amount);\r\n\r\n    // return account balance of sender\r\n    function getBalance() external view returns (uint256) {\r\n        return balances[msg.sender];\r\n    }\r\n\r\n    // return contract balance\r\n    function contractBalance() external view returns (uint256) {\r\n        return address(this).balance;\r\n    }\r\n\r\n    // deposit function into contract\r\n    function deposit() external payable {\r\n        require(msg.value > 0, \"Deposit amount must be greater than 0\");\r\n        balances[msg.sender] += msg.value;\r\n        emit PaymentReceived(msg.sender, msg.value);\r\n    }\r\n\r\n    // transfer function from address to address\r\n    function transfer(address to, uint256 amount, string calldata message) external {\r\n        require(to != address(0), \"Invalid recipient address\");\r\n        require(amount > 0, \"Transfer amount must be greater than 0\");\r\n        require(amount <= balances[msg.sender], \"Insufficient balance\");\r\n        \r\n        balances[msg.sender] -= amount;\r\n        balances[to] += amount;\r\n        \r\n        emit PaymentSent(msg.sender, to, amount, message);\r\n    }\r\n\r\n}",
  "sourcePath": "C:\\Users\\Brian\\Documents\\MIS2300\\DAppsWorkspace\\TRUFFLE\\contracts\\MISA3.sol",
  "compiler": {
    "name": "solc",
    "version": "0.5.16+commit.9c3226ce.Emscripten.clang"
  },
  "schemaVersion": "3.4.16",
  "updatedAt": "2024-04-05T01:32:26.927Z",
  "networkType": "ethereum",
  "devdoc": {
    "methods": {}
  },
  "userdoc": {
    "methods": {}
  }
}